:020000040800F2
:1000000040120020F52D00084D2E00084D2E00084E
:100010004D2E00084D2E00084D2E00080000000057
:100020000000000000000000000000004D2E00084D
:100030004D2E0008000000004D2E00084D2E000837
:100040004D2E00084D2E00084D2E00084D2E0008A4
:100050004D2E00084D2E00084D2E00084D2E000894
:100060004D2E00084D2E00084D2E00084D2E000884
:100070004D2E00084D2E00084D2E00084D2E000874
:100080004D2E00084D2E00084D2E00084D2E000864
:100090004D2E00084D2E00084D2E00084D2E000854
:1000A0004D2E00084D2E00084D2E00084D2E000844
:1000B0004D2E00084D2E00084D2E00084D2E000834
:1000C0004D2E00084D2E00084D2E00084D2E000824
:1000D0004D2E00084D2E00084D2E00084D2E000814
:1000E0004D2E00084D2E00084D2E00084D2E000804
:1000F0004D2E00084D2E00084D2E00084D2E0008F4
:100100004D2E00084D2E00084D2E00084D2E0008E3
:100110004D2E00084D2E00084D2E00084D2E0008D3
:100120004D2E00084D2E00084D2E00084D2E0008C3
:100130004D2E00084D2E00084D2E00084D2E0008B3
:100140004D2E00084D2E00084D2E00084D2E0008A3
:100150004D2E00084D2E00084D2E00084D2E000893
:100160004D2E00084D2E00084D2E00084D2E000883
:100170004D2E0008695B00084D2E00084D2E00082A
:100180004D2E00084D2E00084D2E00084D2E000863
:100190004D2E00084D2E00084D2E00084D2E000853
:1001A0004D2E00084D2E00084D2E000880B485B05D
:1001B00000AF78600023FB607B68DB684FF0FF32A4
:1001C0005A607B68DB686FF080425A61FB7B43F0CA
:1001D0008003FB737B7B43F008037B737B68DB68E6
:1001E000FA689A611437BD465DF8047B704700BF1A
:1001F00080B586B000AF78600023FB7400237B617C
:100200000023FB60032005F07BFC7B68DB681B6937
:10021000FB607B6901337B617B69174A934201D99B
:10022000002324E0FB68DB0FDBB2002BEAD00023C5
:100230007B61FB6843F00103FB607B68DB68FA6865
:100240001A617B68DB681B69FB607B6901337B613A
:100250007B69094A934200D905E0FB6803F001037A
:10026000DBB2012BEDD0032005F04AFCFB7C1846E5
:100270001837BD4680BD00BF400D030080B489B073
:1002800000AFF860B96011461A460B46FB71134681
:10029000BB800023FB76FB68DB78002B22D1002398
:1002A0007B610023FB61BB880333002B00DA03333F
:1002B0009B107B61FB79FA6832339B0013449B6887
:1002C0003B610023FB6109E0BB681A683B691A6067
:1002D000FB690133FB61BB680433BB60FA697B696E
:1002E0009A42F1D3FB7E18462437BD465DF8047B65
:1002F000704700BF80B489B000AFF860B9601346A2
:10030000FB800023FB61FB880333002B00DA0333FF
:100310009B10BB61FB68D3F8D0307B610023FB618D
:1003200009E07B691A68BB681A60FB690133FB61ED
:10033000BB680433BB60FA69BB699A42F1D3BB68FE
:1003400018462437BD465DF8047B704780B487B0FB
:1003500000AF78600B46FB7000233B610023FB730A
:100360007B680022DA707B6801229A707B684022E9
:100370009A80FB78012B13D14FF0A0433B617B683F
:100380000122DA727B6808221A707B6804225A7094
:100390007B684FF4A072DA807B6802221A7217E041
:1003A000FB78002B14D1484B3B617B680022DA724A
:1003B0007B680C221A707B6806225A707B684FF4A7
:1003C000A062DA807B6802221A727B680122DA70EE
:1003D0003A697B68DA603B6903F500631A467B681B
:1003E0001A6100237B611CE07B695A013B6913445D
:1003F00003F5106319467A687B6904339B00134444
:1004000099607B695A013B69134403F530631946CF
:100410007A687B6914339B00134459607B6901330C
:100420007B617B685B781A467B699A42DCD83B69C2
:1004300003F580631A467B685A613B6903F588635C
:100440001A467B68C3F8CC2000237B610FE07B69F0
:100450005A013B69134403F5A06319467A687B6926
:1004600022339B00134499607B6901337B617B6875
:100470001B781A467B699A42E9D800237B610FE01A
:100480007B691A033B69134403F5805319467A6864
:100490007B6932339B00134499607B6901337B6134
:1004A0007B681B781A467B699A42E9D83B6903F559
:1004B00060631A467B68C3F80C21FB7B18461C3727
:1004C000BD465DF8047B70470000044080B586B0EF
:1004D00000AF78600023FB7500233B610023FB60C5
:1004E0000023BB607B681B7A012B46D17B68DB68ED
:1004F0009B6BFB60BB7B6FF30003BB737B685B7A1A
:10050000002B03D0BB7B43F01003BB737B68DB681D
:10051000FA689A6300233B617B68DB68DB683B61B8
:100520003B7C6FF386133B74BB7C43F01003BB74BE
:10053000BB7C6FF38613BB74BB7C6FF34103BB744E
:10054000BB7C6FF3C303BB747B68DB683A69DA601A
:100550007868FFF74DFE7B68DB78012B3DD13B7A55
:10056000052262F344033B723B7A43F020033B7263
:100570007B68DB68BA689A602FE07B68DB68DB68C1
:100580003B613B7C43F040033B747B68DB683A692A
:10059000DA607868FFF72CFE0023FB60BB7B43F03A
:1005A0000103BB73BB7B43F00403BB73BB7B43F012
:1005B0000803BB73BB7B43F02003BB737B685B7A90
:1005C000002B03D0BB7B43F01003BB737B68DB685D
:1005D000FA689A63142005F0B7FA7B68DB78012B80
:1005E00010D17B68DB689B68BB603B7A052262F3B5
:1005F00044033B723B7A43F020033B727B68DB6829
:10060000BA689A60FB7D18461837BD4680BD00BFAA
:1006100080B485B000AF78600023FB730023BB601B
:100620003B7A43F001033B727B68DB687A68D268EF
:100630009168BA680A439A60FB7B18461437BD4636
:100640005DF8047B704700BF80B485B000AF786070
:100650000023FB730023BB603B7A43F001033B7232
:100660007B68DB687A68D2689168BA68D2430A40CE
:100670009A60FB7B18461437BD465DF8047B7047D3
:1006800080B586B000AF786039600023FB7400232A
:100690007B610023FB60FB6843F02003FB603B6849
:1006A000DBB203F01F03DBB203F01F039B01FA6808
:1006B00022F4F8621343FB607B68DB68FA681A6116
:1006C0007B68DB681B69FB607B6901337B617B694D
:1006D000094A934200D906E0FB685B0903F0010375
:1006E000DBB2012BECD0032005F00AFAFB7C1846A4
:1006F0001837BD4680BD00BF400D030080B586B0F1
:1007000000AF78600023FB7400237B610023FB6053
:10071000FB6843F01003FB607B68DB68FA681A61D2
:100720007B68DB681B69FB607B6901337B617B69EC
:10073000094A934200D906E0FB681B0903F0010354
:10074000DBB2012BECD0032005F0DAF9FB7C184674
:100750001837BD4680BD00BF400D030080B584B092
:1007600000AF78600B46FB700023FB737B68DB688F
:10077000DB68BB60FB7A6FF34513FB72FB7A6FF3A8
:100780008613FB72FB78012B04D1FB7A43F0200324
:10079000FB7206E0FB78002B03D1FB7A43F04003A9
:1007A000FB727B68DB68BA68DA60322005F0CCF94E
:1007B000FB7B18461037BD4680BD00BF80B483B0B8
:1007C00000AF78607B68DB685B6903F00103184663
:1007D0000C37BD465DF8047B704700BF80B582B022
:1007E00000AF78607868FFF7E9FF0346012B0CBF84
:1007F00001230023DBB218460837BD4680BD00BF89
:1008000080B485B000AF78600023FB607B68DB6854
:100810005B69FB607B68DB689B69FA681340FB607F
:10082000FB6818461437BD465DF8047B704700BF6F
:1008300080B588B000AF78600023FB760023FB61B1
:1008400000237B6100233B610023FB60786805F097
:1008500033F97B68D3F80C3100221A607B681B7A6D
:10086000012B04D17868002100F0F2F803E07868E9
:10087000012100F0EDF8786800F034F97B685B69DD
:100880001B68FB603B7B6FF382033B737B685B6998
:10089000FA681A607B68DB7A002B19D17B68DB6809
:1008A0004FF400725A624FF40073BB824FF48073AE
:1008B000FB827B68DB687A699A624FF440733B8203
:1008C0004FF480737B827B68DB683A69C3F8002150
:1008D00078681021FFF7D4FE7868FFF70FFF002338
:1008E000FB6113E07A68FB6922339B0013449B6829
:1008F0004FF0FF329A607A68FB6922339B00134401
:100900009B680022DA60FB690133FB617B681B781E
:100910001A46FB699A42E5D87868012100F01CF874
:10092000786800F055F8FB7E18462037BD4680BD3C
:1009300080B483B000AF78607B685B699B6803F02C
:100940000103002B0CBF01230023DBB218460C3738
:10095000BD465DF8047B704780B584B000AF786019
:100960000B46FB700023FB60FB787868194605F0A6
:100970008BF8786800F088F80346FB607B7B03F017
:100980001003DBB2002B0BD1FB78012B08D17B7B52
:1009900043F010037B737B68D3F8CC30FA681A609D
:1009A0007B7B03F01003DBB2002B0BD0FB78002B1A
:1009B00008D17B7B6FF304137B737B68D3F8CC3057
:1009C000FA681A60C82005F0BFF81037BD4680BD30
:1009D00080B584B000AF78600023FB730023BB6058
:1009E0007B68DB6800229A617B68DB684FF0FF322E
:1009F0005A617868FFF7DAFB7B68DB78002B03D15C
:100A00003B7A43F010033B72FB7A43F00103FB7225
:100A1000FB7A43F00203FB72FB7A43F02003FB7284
:100A20003B7A43F008033B72BB7A43F02003BB726E
:100A30007B68DB687A68D2689169BA68D2431140F2
:100A4000BA680A439A61FB7B18461037BD4680BDE1
:100A500080B485B000AF78600B46FB707B685B6943
:100A60001B68FB60FB7803F00303DAB23B7B62F3A5
:100A700001033B737B685B69FA681A601437BD46F3
:100A80005DF8047B704700BF80B485B000AF78602C
:100A90007B68D3F8CC301B68FB603B7B6FF3820331
:100AA0003B733B7B6FF341033B733B7B6FF3C303B0
:100AB0003B733B7B6FF345133B73FB68184614375E
:100AC000BD465DF8047B704780B483B000AF7860AA
:100AD0007B685B695B6918460C37BD465DF8047B33
:100AE000704700BF80B584B000AF78607868FFF7CA
:100AF000CBFF0346FB607B7B43F001037B737B688A
:100B0000D3F8CC30FA681A600A2005F01DF87B7B18
:100B10006FF300037B737B68D3F8CC30FA681A60FC
:100B2000142005F011F8012318461037BD4680BD8A
:100B300080B489B000AF78600B46FB700023FB7770
:100B40000023BB6100233B6100237B610023FB602A
:100B50004FF0FF33BB60FB787A6822339B0013446D
:100B60009B68BA689A6000237B617B68DB78012B05
:100B700003D13B7D43F004033B75FB787A685B014E
:100B8000134403F56A735B7A032B00F2868001A29B
:100B900052F823F0A50B00085D0C0008A50B000817
:100BA0000F0C00083B7D43F001033B753B7D43F098
:100BB00008033B753B7D43F080033B757B7D43F031
:100BC00004037B753B7D43F010033B75FB787A682B
:100BD0005B01134403F56A739B79002B04D07B7D82
:100BE00043F001037B7511E03B7D43F040033B750F
:100BF000FB787A685B01134403F56A731B7A002B58
:100C000004D03B7D43F020033B7546E045E03B7D4F
:100C100043F001033B753B7D43F010033B753B7D87
:100C200043F008033B753B7D43F080033B757B7DC0
:100C300043F004037B757B7D43F002037B75FB78F7
:100C40007A685B01134403F56A739B79002B04D027
:100C50007B7D43F001037B751FE01EE03B7D43F08D
:100C600001033B757B7D43F002037B753B7D43F0C5
:100C700020033B75FB787A685B01134403F56A73C4
:100C80009B79002B08D03B7D43F080033B757B7D37
:100C900043F001037B75FFE700BFFB787A682233DE
:100CA0009B0013449B687A69DA60FB78012202FAA0
:100CB00003F3BB617B685B697A6852699169BA69C1
:100CC0000A439A61FB7C43F00203FB747B68DB6898
:100CD0007A68D26891693A690A439A610023FB6095
:100CE000FB787A685B01134403F56A731B7903F0A0
:100CF0007F03DAB2FB8962F38C13FB81FB787A689D
:100D00005B01134403F56A735B7903F00F03DAB2F6
:100D10007B7B62F3C6037B73FB787A685B011344C9
:100D200003F56A739B7903F00103DAB27B7B62F30C
:100D3000C7137B73FB787A685B01134403F56A730E
:100D4000DB79022B0CBF01230023DAB2BB7B62F3F9
:100D50004103BB73FB787A685B01134403F56A7344
:100D60005B7A03F00303DAB2BB7B62F38303BB73EA
:100D7000FB787A685B01134403F56A735B89C3F3FC
:100D80000A039AB2BB8962F30A03BB81FB787A68D3
:100D90005B01134403F56A735B7A032B03D1FB7B7E
:100DA00043F02003FB73FB787A6822339B001344E3
:100DB0009B68FA681A60FB7F18462437BD465DF8C9
:100DC000047B704780B58CB000AF78600B46FB7039
:100DD000002387F82D3000237B854FF480733B85FB
:100DE00000233B6200237B620023BB60FB787A68B0
:100DF0005B01134403F56E735B68002B32D0FB7804
:100E00007A685B01134403F56E735B68FA7879685E
:100E100052010A4402F56A7252891344013BFA787E
:100E2000796852010A4402F56A725289B3FBF2F3FF
:100E3000FB85FA8D3B8D9A4216D93B8DFB85FB785D
:100E4000FA8DF97878684901014401F56A71498998
:100E500001FB02F211467A685B01134403F56E73DD
:100E6000596001E00123FB85FB787A685B0113443C
:100E700003F56A739B79002B11D0FB78FA8DF97812
:100E800078684901014401F56A71498901FB02F260
:100E900011467A685B01134403F56E735960FB7861
:100EA0007A685B01134403F56E735B68C3F3120247
:100EB0003B6A62F312033B62FB8DC3F309039AB2F0
:100EC0007B8C62F3CC037B84FB787A6815335B01FF
:100ED000134403F588731B7903F00303DAB297F820
:100EE000233062F3461387F82330FB787A68223385
:100EF0009B0013449B683A6A1A617B68DB78012B7C
:100F00000ED1FB787A6822339B0013449B68FA78F1
:100F10007968153252010A4402F5887292685A6162
:100F2000FB787A6822339B0013449B681B687B62C2
:100F30007868FFF7FDFC034603F00103DAB297F887
:100F4000273062F3451387F8273097F8273043F0AE
:100F5000800387F8273097F827306FF3861387F8D8
:100F60002730FB787A6822339B0013449B687A6AA7
:100F70001A607B68DB78002B7BD1FB787A685B0199
:100F8000134403F56A739B79002B72D1FB787A685E
:100F90005B01134403F56E735B68002B69D0FB782B
:100FA0007A685B01134403F56A735B7A032B4BD8B1
:100FB00001A252F823F000BFC90F00080910000871
:100FC000C90F0008091000087B68DB68DB6A7B61D9
:100FD000FB787A685B01134403F56E735B68033337
:100FE0009B087B85BB8A7A8D9A420CD93B7A43F069
:100FF00020033B727B68DB687A68D2689169BA68C3
:101000000A439A6121E020E07B685B691B69FB6011
:10101000FB787A685B01134403F56E735B680333F6
:101020009B087B85BB897A8D9A420CD9FB7A43F069
:101030000403FB727B68DB687A68D2689169BA68DE
:101040000A439A6101E000E000BFFB787A6815333B
:101050005B01134403F588739968FB787A685B0138
:10106000134403F56E735B689BB2FA787868FFF7F8
:1010700005F997F82D3018463037BD4680BD00BFC2
:1010800080B48BB000AF78600B46FB70002387F80C
:1010900027300023BB6100233B61FB787A68223351
:1010A0009B0013449B681B68FB60FB7B43F0800341
:1010B000FB73FB7B43F04003FB73BB7B03F00C0330
:1010C000DBB2002B05D0BB7B03F00C03DBB2082B9B
:1010D0000CD17B68DB68DB6ABB61BB7E002B04D173
:1010E000FB7B6FF3C713FB730BE00AE07B685B6964
:1010F0001B693B61BB7C002B03D1FB7B6FF3C713E8
:10110000FB73FB787A6822339B0013449B68FA6870
:101110001A6097F8273018462C37BD465DF8047BD7
:10112000704700BF80B487B000AF78600B46FB709B
:101130000023FB750023FB60FB7B43F08003FB7304
:10114000FB89012262F3CC03FB81FB787A682233AE
:101150009B0013449B68FA681A61FB787A68223313
:101160009B0013449B681B683B61FB7C43F080033E
:10117000FB74FB7C6FF38613FB74FB787A68223375
:101180009B0013449B683A691A60FB7D18461C3724
:10119000BD465DF8047B704780B582B000AF002388
:1011A000FB711D4B1B78002B07D01B4B1B78012BB1
:1011B00001D101232BE0002329E000F053F800F0D7
:1011C0005BF9002000F03CF80346BB80002045F6A8
:1011D0003C2100F023F8002000F032F803467B8029
:1011E000BB880020194600F019F87B8845F63C22A0
:1011F000934201D10123FB71FB79012B03D1064BF3
:1012000001221A7002E0044B02221A70FB79184680
:101210000837BD4680BD00BFE400002080B483B025
:1012200000AF78600B467B807B6803F150431A4621
:101230007B8813800C37BD465DF8047B704700BF88
:1012400080B485B000AF78600023FB817B6803F138
:1012500050431B88FB81FB8918461437BD465DF857
:10126000047B704780B582B000AF7E20012102F080
:1012700069F802233B7102237B710023BB710023B9
:10128000FB71774805210C2203F016FE74480621F5
:101290000C2203F011FE60233B603B467048194668
:1012A00003F060FD6F4800210C2203F005FE0123CE
:1012B0003B603B466B48194603F054FD6A480021E9
:1012C0000C2203F0F9FD684801210C2203F0F4FD23
:1012D000654808210C2203F0EFFD634809210C2228
:1012E00003F0EAFD60480A210C2203F0E5FD5E48A8
:1012F0000E210C2203F0E0FD5B480F210C2203F0CD
:10130000DBFD4CF203733B603B465748194603F044
:1013100029FD564800210C2203F0CEFD534801213F
:101320000C2203F0C9FD514807210C2203F0C4FD33
:101330004E4808210C2203F0BFFD4C4809210C2225
:1013400003F0BAFD49480A210C2203F0B5FD4748D5
:101350000B210C2203F0B0FD44480C210C2203F0B9
:10136000ABFD42480D210C2203F0A6FD3F480E21A3
:101370000C2203F0A1FD3D480F210C2203F09CFD3F
:101380004FF683733B603B463848194603F0EAFC4E
:10139000374800210C2203F08FFD354801210C2233
:1013A00003F08AFD324802210C2203F085FD30480B
:1013B00003210C2203F080FD2D4804210C2203F0B0
:1013C0007BFD2B4805210C2203F076FD28480B21DC
:1013D0000C2203F071FD26480C210C2203F06CFD59
:1013E00023480D210C2203F067FD21480E210C2219
:1013F00003F062FD1E480F210C2203F05DFD4FF645
:101400003F033B603B461A48194603F0ABFC1948C2
:1014100000210C2203F050FD164801210C2203F09C
:101420004BFD144804210C2203F046FD1148052110
:101430000C2203F041FD0F4808210C2203F03CFD73
:101440000C480F210C2203F037FD48F233133B60A8
:101450003B460848194603F085FC0837BD4680BD69
:101460000004024000080240000C0240001002404C
:10147000001402400018024080B592B000AF012075
:10148000012101F07DFF02233B6007237B600423E1
:10149000BB600723FB6002233B6102237B610223C5
:1014A000BB610123FB6100233B6204237B621023A9
:1014B000BB624023FB624FF4C0733B6300237B633A
:1014C0004FF40063BB630023FB634FF400533B64A2
:1014D0003B467B6407F11C03184604F04DFB00F00B
:1014E00003F84837BD4680BD80B586B000AF002305
:1014F0007B6101237B600823BB600123FB60002329
:101500003B6100BF0120202104F016FC0346002BA4
:10151000F8D13B1D184604F0DDFB0A2000F05AF814
:1015200002237B600823BB600123FB6000233B6137
:1015300000BF0120202104F0FFFB0346002BF8D15F
:101540003B1D184604F0C6FB03237B600823BB60E9
:101550000423FB6000233B6100BF0120202104F035
:10156000EBFB0346002BF8D13B1D184604F0B2FB01
:1015700000BF0120202104F0DFFB0346002BF8D13F
:101580003B1D184604F0A6FB40F231237B61042387
:101590007B600823BB600123FB607B693B6100BF6C
:1015A0000120202104F0C8FB0346002BF8D13B1D8D
:1015B000184604F08FFB40F2AB2004F0ABFB00BFF9
:1015C0000120202104F0B8FB0346002BF8D1183786
:1015D000BD4680BD80B485B000AF78600023FB605D
:1015E0007B68084A02FB03F3FB6002E0FB68013BF7
:1015F000FB60FB68002BF9D11437BD465DF8047B16
:10160000704700BFA086010090B591B000AF0446BE
:10161000084611461A462346FB800346BB800B460C
:101620007B8013463B800023FB6300237B870023E2
:101630003B870023FB86B7F85030DB0A7B87B7F87F
:10164000503003F01F03FB86B7F8503003F4FC63FF
:101650009BB25B093B87BA8813461B019B1A1B018F
:101660001A46FB8813445B001A46174B1B68134449
:10167000FB6300F095F84FF44033FB6002233B61BD
:101680003B8FBB61FB8E7B617B8FFB610F233B62DA
:10169000FB6B7B627B88C3F1F003BB623B88FB6220
:1016A0007B883B6307F10C03184600F087F800F0D5
:1016B00033F900BF022000F03DF90346002BF9D0BA
:1016C0004437BD4690BD00BF3801002090B591B0B1
:1016D00000AF0446084611461A462346FB800346DF
:1016E000BB800B467B8013467B700023FB6300238B
:1016F0007B8700233B870023FB86BA8813461B01A8
:101700009B1A1B011A46FB8813445B001A46234BA5
:101710001B681344FB63B7F85030DB0A7B87B7F8CC
:10172000503003F01F03FB86B7F8503003F4FC631E
:101730009BB25B093B8700F033F84FF44033FB600A
:1017400002233B613B8FBB61FB8E7B617B8FFB6127
:101750000F233B62FB6B7B627B78002B06D100235F
:10176000BB620123FB627B883B6305E0EF23BB6226
:101770007B88FB6201233B6307F10C03184600F0F2
:101780001DF800F0C9F800BF022000F0D3F80346AE
:10179000002BF9D04437BD4690BD00BF3801002072
:1017A00080B500AF4FF40000012101F043FE4FF47B
:1017B0000000002101F03EFE80BD00BF80B487B074
:1017C00000AF786000237B6100233B610023FB6056
:1017D0000023BB604F4A4F4B1B6823F0031323F4D5
:1017E000F85313604B494B4B1A687B681B681343D3
:1017F0000B60484A474B5B6B23F007035363454933
:10180000444B5A6B7B685B6813434B637B685B6834
:10181000002B0CD17B68DB681B027B617B681B693A
:101820001B043B617B685B691B06FB603AE07B68DD
:101830005B68012B0AD17B68DB681B027B617B68DC
:101840001B691B043B610023FB602BE07B685B682A
:10185000022B0AD17B68DB685B017B617B681B69BB
:10186000DB023B610023FB601CE07B685B68032BB1
:101870000CD17B68DB685B017B617B681B699B0229
:101880003B617B685B69DB03FB600BE07B68DB68CB
:101890001B017B617B681B691B023B617B685B6989
:1018A0001B03FB601B481B4B9A6B79693B6919430F
:1018B0007B689B681943FB680B4313438363154A9A
:1018C0007B689B69D363134A124B1B6C23F47F53D1
:1018D00023F03F0313640F490E4B1A6C7B68DB69DE
:1018E00013430B647B685B6A1B04BB60094A094BAA
:1018F0005B6C03F0404353640648064B5A6C7B68AC
:10190000196ABB680B43134343641C37BD465DF83B
:10191000047B704700B0024080B400AF044A044B1F
:101920001B6843F001031360BD465DF8047B7047FC
:1019300000B0024080B485B000AF78600023FB7334
:10194000084B5A687B681340002B02D00123FB73BD
:1019500001E00023FB73FB7B18461437BD465DF89E
:10196000047B704700B0024080B582B000AF2B4BC3
:101970001B78002B4FD14FF40000012101F01EFD18
:10198000274B9B681846012101F0DCFC244B9B6926
:101990001846012101F0D6FC4FF40000012101F0AE
:1019A00067FD4FF40000002101F062FD1C4B1A6836
:1019B0001B4B1B7B9BB210461946042203F07CFA9A
:1019C000174B1A69164B1B7F9BB21046194604220F
:1019D00003F072FA02233B7102237B710123BB7176
:1019E0000023FB710E4B9B883B600D4B1A683B46F6
:1019F0001046194603F0B6F9094B9B8A3B60084B29
:101A00001A693B461046194603F0ACF900F0D0F9CC
:101A1000024B01221A700837BD4680BDE500002048
:101A20000000002080B584B000AF03460A46FB7179
:101A30001346BB7100237B814FF44053FB60714818
:101A4000012104F08DFC4FF44053FB600CE0FB6877
:101A5000002B03D0FB68013BFB6005E04FF0FF303B
:101A600000F0C8F90346C8E06648674904F036FD4F
:101A70000346002BEBD06348002104F0CFFCFB7938
:101A800060481946002204F0ABFC4FF44053FB6061
:101A90000CE0FB68002B03D0FB68013BFB6005E01A
:101AA0006FF0010000F0A6F90346A6E0554857493B
:101AB00004F014FD0346002BEBD0524B1B8B4FF46C
:101AC0004053FB600CE0FB68002B03D0FB68013B3C
:101AD000FB6005E06FF0020000F08CF903468CE03B
:101AE00048484B4904F0FAFC0346002BEBD0BB7985
:101AF0004448194604F0D4FC4FF44053FB600CE01A
:101B0000FB68002B03D0FB68013BFB6005E06FF036
:101B1000030000F06FF903466FE03A483C4904F0D7
:101B2000DDFC0346002BEBD036483A4904F0D6FCE6
:101B30000346002BE4D03348012104F011FC4FF49C
:101B40004053FB600CE0FB68002B03D0FB68013BBB
:101B5000FB6005E06FF0040000F04CF903464CE038
:101B60002848294904F0BAFC0346002BEBD0FB7946
:101B700024481946012204F033FC4FF44053FB6023
:101B80000CE0FB68002B03D0FB68013BFB6005E029
:101B90006FF0050000F02EF903462EE019481B49AE
:101BA00004F09CFC0346002BEBD0164B1B8B4FF430
:101BB0004053FB600CE0FB68002B03D0FB68013B4B
:101BC000FB6005E06FF0060000F014F9034614E036
:101BD0000C48114904F082FC0346002BEBD0094865
:101BE000012104F0DDFB074804F06AFC03467B8119
:101BF0000448012104F012FC7B891BB218461037FF
:101C0000BD4680BD005C00400100001002000010D5
:101C100080000010040000104000001080B584B067
:101C200000AF0346FB710B46BB7113467B7100236B
:101C30007B814FF44053FB605048012104F090FB3E
:101C40004FF44053FB600CE0FB68002B03D0FB68B3
:101C5000013BFB6005E04FF0FF3000F0CBF803469E
:101C600086E04648464904F039FC0346002BEBD099
:101C7000FB7942481946002204F0B2FB4FF440536E
:101C8000FB600CE0FB68002B03D0FB68013BFB60B2
:101C900005E06FF0010000F0ADF8034668E037485A
:101CA000384904F01BFC0346002BEBD0334B1B8B55
:101CB0004FF44053FB600CE0FB68002B03D0FB6843
:101CC000013BFB6005E06FF0020000F093F8034673
:101CD0004EE02A482C4904F001FC0346002BEBD0CF
:101CE000BB792648194604F0DBFB4FF44053FB60F8
:101CF0000CE0FB68002B03D0FB68013BFB6005E0B8
:101D00006FF0030000F076F8034631E01B481E49EF
:101D100004F0E4FB0346002BEBD07B79174819460F
:101D200004F0BEFB4FF44053FB600CE0FB68002B5B
:101D300003D0FB68013BFB6005E06FF0040000F09E
:101D400059F8034614E00D480F4904F0C7FB034659
:101D5000002BEBD009480D4904F0C0FB0346002BD3
:101D6000E4D00648012104F01BFB00237B817B8922
:101D70001BB218461037BD4680BD00BF005C004056
:101D8000010000100200001080000010040000108C
:101D900080B483B000AF786000BF7B685A1E7A6061
:101DA000002BFAD10C37BD465DF8047B704700BFAD
:101DB00080B584B000AF0023BB804BF6FF73FB807F
:101DC00000233B814FF480637B814FF48043BB81D0
:101DD000064B3B600648012104F0A2FA3B4604484A
:101DE000194604F0DBF91037BD4680BDA08601001E
:101DF000005C004080B584B000AF0346FB80FB88E8
:101E0000FB810B48012104F0CBFA0948012104F0C1
:101E100025FB0748002104F021FB054804F084F964
:101E2000FFF7C6FFFB891BB218461037BD4680BDC1
:101E3000005C004080B588B002AF7860BB88FB8250
:101E4000FB88BB820023FB740023BB7403F0A0FD5E
:101E50000346FB7403F0B4FD0346BB74FB7C002B0C
:101E600008D0FB7C0A2B05D06C4AFB7C13706C4BB2
:101E700001221A606A4B1B68002B04D0684B1B6858
:101E80000133674A1360664B1B68B3F57A7F06D946
:101E9000624B1B78FB74624B4FF461721A60BB7C1F
:101EA000012B02D15E4B00221A60F98ABA8A4FF6E2
:101EB000FF7300930846114614220123FFF706FC26
:101EC000FB7C184603F040F80346FB74FB7C1F2B99
:101ED00014D9FB7C002B11D0FB7C0A2B0ED0514B6C
:101EE0001B88F88AB98AFA7C00934FF6FF73019336
:101EF0004D4B03F02FF9FB8A0B33FB82FB7C013B3C
:101F0000072B5ED801A252F823F000BF2D1F000856
:101F1000351F0008C31F00086B1F0008811F000841
:101F2000911F0008A11F0008B31F00083F4B0022AB
:101F30001A7046E0FB8A0A2B03D9FB8A0B3BFB8213
:101F400007E0BB8A142B04D9E623FB82BB8A143B2F
:101F5000BB82F98ABA8A4FF6FF730093084611468E
:101F60000B221423FFF750FB2BE00A23FB82BB8AD2
:101F7000B3F58C7F03D2BB8A1433BB8221E020E00F
:101F8000FB8A0B2B03D9FB8A0B3BFB8219E018E081
:101F9000BB8A142B03D9BB8A143BBB8211E010E02F
:101FA000BB8AB3F58C7F03D2BB8A1433BB8208E0B3
:101FB00007E0FB8AE42B03D8FB8A0B33FB82FFE7A5
:101FC00000BFFB8AE62B0CD9BB8AB3F5917F05D203
:101FD0000A23FB82BB8A1433BB8202E0FB8A0B3BE1
:101FE000FB82104B1B88F98ABA8A00930846114677
:101FF00014220123FFF76AFBFB8ABB80BB8AFB80AC
:102000007B68FB600023BA8962F30F03FA8962F3ED
:102010001F4318461837BD4680BD00BFE8000020AA
:10202000EC0000203E010020580000203C01002070
:1020300080B584B002AF0023FB7103F0A9FC034616
:10204000FB71FB79062B16D11D4B01221A70002360
:10205000009300200021F0224FF4A073FFF7D4FA80
:10206000184B1B88009323203C21AA225023FFF702
:10207000CBFA01F043F8FB79072B16D1104B022263
:102080001A700023009300200021F0224FF4A07367
:10209000FFF7BAFA0B4B1B8800932320BE21AA221C
:1020A0005023FFF7B1FA01F029F8FB79042B02D194
:1020B000034B1B7800E0002318460837BD4680BD5F
:1020C000F00000203E010020B0B588B002AF002330
:1020D000FB7503F05DFC0346FB752D4B3C461D462E
:1020E00028686968AA68EB680FC428692060FB7DCE
:1020F000062B02D0FB7D082B1BD1264B1B880133FE
:102100009AB2244B1A80234B1B885B0007F11802FC
:10211000134433F8182C204B1A801F4B1B88009354
:102120004FF6FF7301930A200A211C4A1C4B03F04F
:10213000B7F8FB7D072B02D0FB7D052B1BD1154B80
:102140001B88013B9AB2134B1A80124B1B885B0011
:1021500007F11802134433F8182C0F4B1A800E4B5A
:102160001B8800934FF6FF7301930A200A210B4A44
:102170000B4B03F095F8FB7D042B02D0FB7D012B6C
:1021800001D1002300E0022318461837BD46B0BD38
:1021900088820008200000203E010020788200088C
:1021A0005800002080B582B000AF78600846114624
:1021B0001A460346FB700B46BB7013467B70F978DA
:1021C000FB787A6803F531735B0013449B88DBB2BC
:1021D00003F07F03D8B27A684B01134403F56A73A6
:1021E00002465A71F978FB787A6803F531735B001F
:1021F00013449B8803F08003002B14BF01230023AA
:10220000DBB218467A684B01134403F56A73024641
:102210009A71FB787A685B01134403F56A73BA78A4
:102220001A71FB787A685B01134403F56A733A7C90
:102230005A72FB787A685B01134403F56A73BA8AB1
:102240005A81FB787A685B01134403F56A737A78E4
:10225000DA71FB787A681E335B01134400221A712D
:10226000FB787A681E335B01134400225A717B7835
:10227000002B07D1FB787A685B01134403F56A737E
:1022800001221A72FB7878681946FEF751FC002388
:1022900018460837BD4680BD80B582B000AF786073
:1022A000084611461A460346FB700B46BB701346A0
:1022B0007B70BB78002B07D0FB787A685B011344F6
:1022C00003F56A73BA781A71FB787A685B01134474
:1022D00003F56A735B89BA8A9A420AD0BB8A002BDB
:1022E00007D0FB787A685B01134403F56A73BA8AF6
:1022F0005A81FB787A685B01134403F56A73DB79D2
:102300007A789A420AD07B78002B07D0FB787A68DB
:102310005B01134403F56A737A78DA71FB787868A5
:102320001946FEF705FC002318460837BD4680BD58
:1023300080B584B000AF78600B46FB70786800F021
:102340005BF80346FB81FB894FF6FF7293420ED088
:10235000F989FB789BB26FEA43436FEA534398B223
:102360007A6801F531735B00134402469A80FB8959
:10237000DBB218461037BD4680BD00BF80B483B0C5
:1023800000AF78600B46FB70FB78072B11D8F9780B
:10239000FB787A6803F531735B0013449B88C3F3C1
:1023A0000E0398B27A6801F531735B00134402465C
:1023B0009A80002318460C37BD465DF8047B7047B1
:1023C00080B485B000AF78600223FB730AE0FB7B2A
:1023D0007A6803F531735B00134400229A80FB7B1B
:1023E0000133FB73FB7B072BF1D90023184614370D
:1023F000BD465DF8047B704780B485B000AF78605F
:102400000023FB730023FB7310E0FB7B7A6803F56A
:1024100031735B0013449B889BB21BB2002B02DB21
:10242000FB7B9BB207E0FB7B0133FB73FB7B072B42
:10243000EBD94FF6FF7318461437BD465DF8047BA1
:10244000704700BF80B588B002AFF860B96013462E
:10245000FB71FB6803F58872FB799BB200920193D4
:10246000F868B96800224FF4807300F087F80346DB
:10247000FB75FB7D002B0CD1BB6803F12201FB68CF
:1024800003F58872FB799BB2084611461A4600F0A4
:1024900027F9FB7D18461837BD4680BD90B589B039
:1024A00002AFF860B9601346FB800023FB82FB6833
:1024B00003F588730093FB880193F868B9680022DC
:1024C0004FF4007300F05AF803467B757B7D002BB8
:1024D00020D10AE0FB8AFA8AF9680A4492F81011BE
:1024E0000F4AD154FB8A0133FB82FA8AFB889A4255
:1024F000F0D3BB6803F13400BB6803F13E01BB6855
:1025000003F15002FB6803F58874FB8800932346AF
:1025100000F056F97B7D18461C37BD4690BD00BFC4
:102520005401002090B589B002AFF860B9603B60FB
:102530001346FB71FB799BB243F440739CB2FB687A
:1025400003F5887300933B8D0193F868B968002206
:10255000234600F013F80346FB75FB7D002B08D1E2
:10256000FB6803F588723B8D104639681A4600F007
:1025700061FAFB7D18461C37BD4690BD80B584B01E
:1025800000AFF860B96011461A460B46FB7113465E
:10259000BB80FB7963F07F03DAB2BB681A75BB6856
:1025A00006225A75BB68BA88DA82BB8803F47F4377
:1025B000B3F5407F04D1BB6840F209421A8302E0C0
:1025C000BB6800221A83BB68BA8B5A83BB8BF8683E
:1025D000B968BA6903F0B6FF034618461037BD461E
:1025E00080BD00BF80B584B000AFF860B96013460D
:1025F000FB71BB6800221A75BB6805225A75FB790E
:102600009AB2BB68DA82BB6800221A83BB680022D8
:102610005A83F868B9680022002303F093FF034649
:1026200018461037BD4680BD80B584B000AFF86055
:10263000B9601346FB80BB6800221A75BB6809228B
:102640005A75BB68FA88DA82BB6800221A83BB68B5
:1026500000225A83F868B9680022002303F072FF51
:10266000034618461037BD4680BD00BF80B584B014
:1026700000AFF860B96011461A460B46FB7113466D
:10268000BB71BB6802221A75BB6801225A75BB6810
:102690000022DA82FB799AB2BB681A83BB680022F7
:1026A0005A83FB795BB2002B07DABB79FA681E33D9
:1026B0005B01134400221A7106E0BB79FA681E33ED
:1026C0005B01134400225A71F868B96800220023A4
:1026D00003F038FF034618461037BD4680BD00BFE3
:1026E00080B485B000AFF860B9601346FB80BB686A
:1026F0001A78FB681A70BB685A78FB685A70BB6816
:1027000002331B789AB2BB6803331B789BB21B025F
:102710009BB213449AB2FB685A80BB681A79FB6873
:102720001A71BB685A79FB685A71BB689A79FB6861
:102730009A71BB68DA79FB68DA71FB88082B39D9A2
:10274000BB6808331B789AB2BB6809331B789BB20D
:102750001B029BB213449AB2FB681A81BB680A330E
:102760001B789AB2BB680B331B789BB21B029BB2DF
:1027700013449AB2FB685A81BB680C331B789AB237
:10278000BB680D331B789BB21B029BB213449AB2F9
:10279000FB689A81BB689A7BFB689A73BB68DA7B9B
:1027A000FB68DA73BB681A7CFB681A74BB685A7CD6
:1027B000FB685A741437BD465DF8047B704700BF50
:1027C00080B58CB000AFF860B9607A603B603B6860
:1027D000FB62002387F82A30002387F82B303B6800
:1027E000FB623B681A78FB681A703B685A78FB6892
:1027F0005A703B6802331B789AB23B6803331B78EC
:102800009BB21B029BB213449AB2FB685A803B688E
:102810001A79FB681A713B685A79FB685A713B68F0
:102820009A79FB689A713B68DA79FB68DA713B68E0
:102830001A7AFB681A723B8F092B40F29A8009239F
:102840007B82FB681B79022B00F28D8000237B6268
:1028500083E007F11203F86A194600F01DF9F862E7
:10286000FB6A5B78042B78D1FB6A02331B7887F80C
:102870002A3097F92A201346DB001344BA68134420
:102880007B62FB6A03331B78022B66D807F11403C3
:102890001846F96A00F074F8002387F82B303B7E65
:1028A000022B5AD854E007F11203F86A194600F0D7
:1028B000F3F8F862FB6A5B78052B49D197F92A3067
:1028C0001B017A681A4497F92B30DB0013443B62F2
:1028D000294B1B781A4697F92A309A420AD097F862
:1028E0002A20254B1A7007F11403786A194600F064
:1028F00047F814E0214B1B881A46FB6A04331B7807
:102900001946FB6A05331B781B020B449A4200DD13
:1029100023E007F11403786A194600F031F8386AA9
:10292000F96A00F05BF8FB6A04331B789AB2FB6A21
:1029300005331B789BB21B029BB213449AB20F4B18
:102940001A8097F82B30DBB20133DBB287F82B30DB
:1029500097F92B303A7E9342A5DBFB685A887B8A35
:102960009A423FF676AF054B00221A80024B0022B6
:102970001A703037BD4680BDF4000020F6000020FC
:1029800080B483B000AF786039603B681A787B68A8
:102990001A703B685A787B685A703B689A787B68F3
:1029A0009A703B68DA787B68DA703B681A797B68E2
:1029B0001A713B685A797B685A713B689A797B68CF
:1029C0009A713B68DA797B68DA713B681A7A7B68BE
:1029D0001A720C37BD465DF8047B704780B483B033
:1029E00000AF786039603B681A787B681A703B6882
:1029F0005A787B685A703B689A787B689A703B6813
:102A0000DA787B68DA703B6804331B789AB23B68EB
:102A100005331B789BB21B029BB213449AB27B68AE
:102A20009A803B689A797B689A710C37BD465DF84D
:102A3000047B704780B487B000AFF860B96013467C
:102A4000FB80FB6801331B78032B20D1FB681B78CC
:102A50009A1EFB889342A8BF1346BB82FB680233D1
:102A6000FB600023FB820BE0FB8AFA6813441A78B0
:102A7000BB681A70BB680133BB60FB8A0233FB8200
:102A8000FA8ABB8A9A42EFD3BB6800221A701C37BD
:102A9000BD465DF8047B704780B485B000AF7860B8
:102AA00039603B681A887B681B789BB213449AB2E2
:102AB0003B681A807B681B781A467B681344FB606E
:102AC000FB6818461437BD465DF8047B704700BFAD
:102AD00080B489B000AF78600023FB610023BB6144
:102AE00000237B6100233B610023FB600023BB606C
:102AF0003F493F4B9A683F4B13408B607B681B6993
:102B00001B04FB613A483A4B9A687B685969FB6938
:102B10000B43134383603649354BDA68354B13401A
:102B2000CB607B689B691B04BB613148304BDA6822
:102B30007B68D969BB690B431343C3602C492C4B99
:102B40001A692C4B13400B617B681B6A1B047B6169
:102B50002748274B1A697B68596A7B690B431343E3
:102B600003612349224B5A69224B13404B617B6816
:102B70009B6A1B043B611E481D4B5A697B68D96ADE
:102B80003B690B43134343611949194B9A691A4B2B
:102B900013408B611648164B9A697B6819687B68ED
:102BA0005B6819437B689B6819437B68DB680B4350
:102BB000134383617B685B6B1B02FB607B681B6B51
:102BC0001B04BB600A4A0A4BDB6A03F07F43D362F3
:102BD0000748074BDA6AB968FB6819437B689B6B47
:102BE0000B431343C3622437BD465DF8047B704733
:102BF0000068014000F800F08F88FE0F80B483B0B9
:102C000000AF0346FB71FB79002B06D0084A084B46
:102C10009B6943F00103936105E0054A044B9B69FE
:102C200023F0010393610C37BD465DF8047B7047C8
:102C30000068014080B483B000AF0346FB71FB79AC
:102C4000002B06D0084A084B9B6943F480339361FC
:102C500005E0054A044B9B6923F4803393610C37EC
:102C6000BD465DF8047B70470068014080B483B0C6
:102C700000AF7860034A7B6853620C37BD465DF84D
:102C8000047B70470068014080B489B000AF786071
:102C900039600023FB610023BB6100237B610023BB
:102CA0003B610023FB600023BB603B685B681B0447
:102CB000FB617B685B6803F470427B685A603B6829
:102CC0001A68FB691A437B685A603B68DB681B041F
:102CD000BB617B689B6803F470427B689A603B68C9
:102CE0009A68BB691A437B689A607B681B6923F00A
:102CF00007027B681A613B681A697B681A613B6846
:102D0000DB691B027B613B681B6A1B043B613B6800
:102D10005B6A1B06FB607B689B697B6800229A618B
:102D20003B689A697B691A433B691A43FB681A43FB
:102D30007B689A617B685B6923F0FF027B685A615C
:102D40003B685A697B685A617B68DB6923F4E063FE
:102D500023F007037A68D3613B689A6A3B68DB6AB1
:102D60001A437B68DA617B689B6A7B6800229A62FF
:102D70003B681A6B7B689A623B689B6B1B04BB6069
:102D80007B68DB6A03F0E0227B68DA623B685A6B9F
:102D9000BB681A437B68DA627B681B6B23F4FF63B2
:102DA00023F007037A6813633B68DA6B7B681A6366
:102DB0002437BD465DF8047B704700BF80B483B004
:102DC00000AF78600B46FB70FB78002B06D07B6869
:102DD0001B6843F001027B681A6005E07B681B6892
:102DE00023F001027B681A600C37BD465DF8047B56
:102DF000704700BF80B582B000AF0F4B7B600F4BB8
:102E00003B6007E03B681A1D3A607A68111D7960E3
:102E100012681A603B680A4A9342F3D309480A4988
:102E20004FF000028842B8BF40F8042BFADB00F0F4
:102E300011F80837BD4680BDE8A700080000002053
:102E4000E4000020E40000203C0A002080B400AF31
:102E5000FEE700BF80B584B002AF02F069FA00F06F
:102E600063FE00F08DFE00F0E3FE4FF6FF7000F011
:102E700003FF00F0EFFE4FF6FF7000F0FDFE944BF5
:102E8000944A1A60944B1F221A80944B00221A70A5
:102E900003F034FD0346012B18D04FF6FF73009367
:102EA0004FF4784301930A201C218D4A8D4B02F088
:102EB000F7F94FF6FF7300934FF4784301930A201C
:102EC0002E21894A874B02F0EBF9FEE702F0FCFC69
:102ED0000023009300200021F0224FF4A073FEF79E
:102EE00093FB00F00BF96BE002F016FD0346FB715B
:102EF000FB79012B05D0FFF79BF803461A46774B69
:102F00001A7003F01BFD794B1B78002B12D1774B05
:102F10009B88812B0ED8754B9B88452B0AD9734B08
:102F20005B88D62B06D8714B5B882D2B02D96B4B57
:102F300001221A706D4B1B78002B13D16B4B9B88B1
:102F4000B3F5827F0ED2694B9B88C72B0AD9674B9A
:102F50005B88D62B06D8654B5B882D2B02D95F4B3F
:102F600002221A705D4B1B78012B0FD1604B0A2295
:102F70001A805F4B0A225A804FF6FF73009300209D
:102F80000021F0224FF4A073FEF73EFB534B1B7859
:102F9000022B15D14FF6FF73009300200021F02281
:102FA0004FF4A073FEF730FB4B4B1B8800934FF69A
:102FB000FF7301930A200A214E4A4A4B02F070F92E
:102FC000464B1B78002B8FD06BE002F0A5FC03462C
:102FD000FB7103F0B3FC464B1988454B5A884FF6FA
:102FE000FF7300930846114614220123FEF76EFB7F
:102FF0003E4B1B78002B25D13C4B9B88B3F59E7F25
:1030000020D83A4B9B88022B1CD9384B5B88EC2B81
:1030100018D8364B5B88032B14D9344B5A88344B61
:103020001A80324B9A88324B5A80314B1988304B78
:103030005A884FF6FF730093084611461422012365
:10304000FEF744FBFB79012B0DD0294B1B680022B6
:103050001A461046FEF7EEFE0246254B1146198031
:10306000C2F30F425A80FB79062B0AD14FF6FF7349
:10307000009300204FF49771F0224FF4A073FEF7F5
:10308000C3FAFB79012B0CD14FF4784300934FF630
:10309000FF7301930A204FF49771174A114B02F006
:1030A000FFF80E4B1B78012B8FD00CE002F034FCA4
:1030B0000346FB71FB79012B05D0FFF705F80346AA
:1030C0001A46064B1A70054B1B78022BEED0FFE612
:1030D00038010020005802D03E0100203C010020B1
:1030E0009C82000858000020A88200085403002099
:1030F00044010020BC820008CC82000880B582B068
:1031000002AF4FF6FF7300932D20462196223C23F9
:10311000FEF77AFA002300934FF6FF7301934120E4
:103120005A210D4A0D4B02F0BBF84FF6FF73009386
:103130002D20C82196223C23FEF766FA0023009337
:103140004FF6FF7301934120DC21054A034B02F047
:10315000A7F8BD4680BD00BFE482000858000020EB
:10316000EC82000880B485B000AFF860B9607A6086
:103170000749FB689A01BB681B061A437B681B075B
:103180001343C1F888301437BD465DF8047B70479F
:103190000038024080B483B000AF0346FB71044A9C
:1031A000FB7913600C37BD465DF8047B704700BFA8
:1031B0007000474280B489B000AF78600023BB61E3
:1031C00000237B610023FB6102233B610023FB6042
:1031D0000223BB60484B9B6803F00C03BB61BB69D7
:1031E000042B07D0082B09D0002B3FD17B68434A22
:1031F0001A603FE07B68424A1A603BE03E4B5B68E6
:1032000003F480039B0DFB603B4B5B6803F03F03C3
:10321000BB60FB68002B0DD0394ABB68B2FBF3F2F0
:10322000354B596847F6C0730B409B0903FB02F30B
:10323000FB610CE0314ABB68B2FBF3F22E4B5968DC
:1032400047F6C0730B409B0903FB02F3FB612A4B5B
:103250005B6803F440331B0C01335B003B61FA698C
:103260003B69B2FBF3F27B681A6003E07B68234A98
:103270001A6000BF204B9B6803F0F003BB61BB6981
:103280001B09BB611F4ABB6913441B78DBB27B611E
:103290007B681A687B69DA407B685A60164B9B68CA
:1032A00003F4E053BB61BB699B0ABB61154ABB6970
:1032B00013441B78DBB27B617B685A687B69DA4018
:1032C0007B689A600C4B9B6803F46043BB61BB69ED
:1032D0005B0BBB610B4ABB6913441B78DBB27B61A0
:1032E0007B685A687B69DA407B68DA602437BD46C0
:1032F0005DF8047B704700BF003802400024F400F2
:1033000000127A002400002080B485B000AF7860FD
:103310000023FB600A4BD3F88C30FB60FB6823F47E
:103320004033FB60FA687B681343FB60044AFB6828
:10333000C2F88C301437BD465DF8047B704700BF7F
:103340000038024080B483B000AF78600B46FB7059
:10335000FB78002B06D00949084B1A6B7B68134396
:103360000B6306E00549054B1A6B7B68DB43134092
:103370000B630C37BD465DF8047B70470038024094
:1033800080B483B000AF78600B46FB70FB78002BF5
:1033900006D00949084B9A6B7B6813438B6306E0A0
:1033A0000549054B9A6B7B68DB4313408B630C37F5
:1033B000BD465DF8047B70470038024080B483B09E
:1033C00000AF78600B46FB70FB78002B06D00949F4
:1033D000084B1A6C7B6813430B6406E00549054BE8
:1033E0001A6C7B68DB4313400B640C37BD465DF8F9
:1033F000047B70470038024080B483B000AF78602F
:103400000B46FB70FB78002B06D00949084B5A6C21
:103410007B6813434B6406E00549054B5A6C7B6897
:10342000DB4313404B640C37BD465DF8047B7047AB
:103430000038024080B483B000AF78600B46FB7068
:10344000FB78002B06D00949084B1A697B681343A7
:103450000B6106E00549054B1A697B68DB431340A5
:103460000B610C37BD465DF8047B704700380240A5
:1034700080B483B000AF78600B46FB70FB78002B04
:1034800006D00949084B1A6A7B6813430B6206E0B1
:103490000549054B1A6A7B68DB4313400B620C3706
:1034A000BD465DF8047B70470038024080B483B0AD
:1034B00000AF78600B46FB70FB78002B06D0094903
:1034C000084B5A6A7B6813434B6206E00549054B7B
:1034D0005A6A7B68DB4313404B620C37BD465DF88C
:1034E000047B70470038024080B487B000AF0346C9
:1034F000FB710023FB6000237B610023FB74FB79DD
:103500005B09DBB2FB60FB68012B03D1124B1B682C
:103510007B6109E0FB68022B03D10F4B1B6F7B61C2
:1035200002E00D4B5B6F7B61FB7903F01F03FB60D7
:10353000FB687A6922FA03F303F00103002B02D03F
:103540000123FB7401E00023FB74FB7C18461C374D
:10355000BD465DF8047B704700380240B0B588B0C6
:1035600002AF786039603B683B610023FB75012343
:10357000BB755D4B062283F842203B6993F84430CB
:10358000012B40F0A6803B6993F84530012B02D116
:10359000554B564A1A65544B002283F84220524B31
:1035A000002283F845203B6993F852204E4B83F864
:1035B00048203B69B3F854204B4BA3F846203B69A5
:1035C00093F856309AB2484BA3F84A20464BB3F8CA
:1035D0004A30092B03D8444B0A22A3F84A203B69FE
:1035E00093F84230022B28BF0223FB730023FB75A4
:1035F00065E0FB7D3A690A33DB0013449B78DBB25C
:103600005BB2002B2CDAFB7D3A690A33DB001344F2
:103610009A78354B83F84420FB7D3A690A33DB0006
:1036200013449B7878681946FEF782FE03461A46D3
:103630002D4B83F840202C4B93F840103B6993F8B6
:1036400020503B6993F82140274BB3F846300322C2
:103650000092019378682A462346FEF7A3FD2BE0EB
:10366000FB7D3A690A33DB0013449A781E4B83F8DA
:103670004320FB7D3A690A33DB0013449B7878686A
:103680001946FEF755FE03461A46174B83F84120AC
:10369000154B93F841103B6993F820503B6993F820
:1036A0002140114BB3F84630032200920193786811
:1036B0002A462346FEF776FDFB7D0133FB75FA7D36
:1036C000FB7B9A4295D30A4B00221A700023BB75EC
:1036D00004E03B69D3F880301B6C9847BB7D1846EB
:1036E0001837BD46B0BD00BFA4030020D80000209D
:1036F000F800002080B582B000AF786039601A4BC6
:1037000093F84030002B11D0174B93F84030786875
:103710001946FDF7B5FC144B93F84030786819460C
:10372000FEF72CFE104B002283F840200E4B93F83E
:103730004130002B11D00C4B93F84130786819467A
:10374000FDF79EFC084B93F8413078681946FEF768
:1037500015FE054B002283F84120044B00221A700D
:103760000837BD4680BD00BFA4030020F80000203C
:1037700080B586B000AF786039603B683B6101235B
:10378000FB750123FB73334B93F84530042B5BD857
:1037900001A252F823F000BFAD370008D737000868
:1037A000AD370008F737000829380008786839690C
:1037B000092200F00FF90346002B0BD17B6803F5BB
:1037C00088732548194600F075F9224B012283F8C9
:1037D00045203AE039E0204B1B89786839691A4660
:1037E00000F0DCF80346002B04D11A4B032283F8C7
:1037F00045202AE029E0786839690022002300F09A
:1038000005F90346FB73FB7B002B04D1114B04220B
:1038100083F8452007E0FB7B032B04D10D4B0422EA
:1038200083F8452011E010E078683969002200F043
:1038300019F90346002B06D1064B002283F84520D8
:103840000023FB7501E000E000BFFB7D1846183740
:10385000BD4680BDA4030020F803002080B584B0DD
:1038600000AF786039603B68FB600023FB72494B16
:1038700093F84230052B00F2868001A252F823F023
:10388000993800088739000887390008C1380008CE
:10389000A9380008F73800083E4B1B6D1B68984795
:1038A0003C4B042283F842207868FDF741F8034638
:1038B000012B04D1374B032283F8422064E063E0FC
:1038C000344BB3F84630DAB2324B93F84030786874
:1038D000304902F03BFF304B01221A702D4B05227C
:1038E00083F84220786802F0D9FA03469AB2294B4D
:1038F000A3F84C2048E0786802F0D0FA0246254B45
:10390000B3F84C309BB2D31A224AB2F84A20934201
:1039100004D3204B032283F8422033E01D4B93F85D
:1039200040307868194602F0C7FA0346012B0DD1E2
:10393000194B1B78DBB2012B24D1174B00221A70D4
:10394000144B1B6D5B68134898471DE0114B93F8AF
:1039500040307868194602F0AFFA0346042B11D1C3
:103960000C4B93F848200B4B93F840307868F9687B
:10397000FEF77CFE0346002B04D1064B032283F89E
:10398000422001E000E000BFFB7A18461037BD4638
:1039900080BD00BFA4030020F800002080B588B0DF
:1039A00002AFF860B9601346FB80FB6803F58873CB
:1039B0000093FB880193F868B96801224FF408531B
:1039C000FEF7DCFD0346FB75FB7D18461837BD4648
:1039D00080BD00BF80B588B002AFF860B960134603
:1039E000FB80FB6803F588730093FB880193F868FC
:1039F000B96801224FF40453FEF7C0FD0346FB757E
:103A0000FB7D18461837BD4680BD00BF80B584B029
:103A100000AFF860B96011461A460B46FB711346B9
:103A2000BB71BB6821221A75BB680A225A75FB79E3
:103A30001B029AB2BB799BB213439BB29AB2BB688A
:103A4000DA82BB6800221A83BB6800225A83F868B6
:103A5000B9680022002302F075FD034618461037AE
:103A6000BD4680BD80B584B000AFF860B960134634
:103A7000FB71BB6821221A75BB680B225A75FB7952
:103A8000002B03D0BB680022DA8202E0BB6801226F
:103A9000DA82BB6800221A83BB6800225A83F86866
:103AA000B9680022002302F04DFD03461846103786
:103AB000BD4680BD80B483B000AF786039603B689C
:103AC0001A787B681A703B685A787B685A703B6832
:103AD00002331B789AB23B6803331B789BB21B02FC
:103AE0009BB213449AB27B685A803B681A797B6810
:103AF0001A713B685A797B685A713B689A797B687E
:103B00009A713B6807331B789AB23B6808331B787D
:103B10009BB21B029BB213449AB27B681A810C378A
:103B2000BD465DF8047B704780B582B000AF0023CE
:103B3000FB7100F055F9002001F0BAFC00F0FEF92D
:103B40000B4B00221A70FDF727FB00F07DF90123D3
:103B5000FB71084B00221A80074B00221A80074B8A
:103B600000221A60FB7918460837BD4680BD00BFA9
:103B7000400100200001002002010020040100207B
:103B800080B590B000AF1E233B6040F20D137B6008
:103B90000423BB6040F24313FB6002233B61FF231D
:103BA0007B610023BB610023FB6100233B62002398
:103BB0007B624FF48063BB620523FB6240F2E31338
:103BC0007B634FF4F073BB634FF4A073FB634FF060
:103BD00050433B633B4613481946FFF755F8124BD9
:103BE0003B634FF4C063BB620723FB623B460F4855
:103BF0001946FFF749F80120FFF738F80948012175
:103C0000FFF7DCF809480121FFF7D8F80120FFF79A
:103C10002DF80120FFF70EF80120FEF7EFFF4037E7
:103C2000BD4680BD84680140005802D0046901404F
:103C300080B400AF054B4FF050421A60044B002295
:103C40001A60BD465DF8047B704700BF4400002049
:103C5000FC00002080B400AF044B054A1A60054BFD
:103C600001221A60BD465DF8047B704744000020C5
:103C7000005802D0FC00002080B485B000AF03469D
:103C8000FB800023FB600023FB600AE0FB685A0016
:103C9000084B1B6813441A46FB881380FB680133EA
:103CA000FB60FB68B3F5163FF0D31437BD465DF8F3
:103CB000047B70474400002080B483B000AF03460B
:103CC0000A46FB801346BB800E4AFB8813800E4ACF
:103CD000BB8813800C4B1B881A4613461B019B1A8A
:103CE0001B011A46074B1B8813445B001A46074BFF
:103CF0001B681344064A13600C37BD465DF8047B0D
:103D0000704700BF00010020020100204400002095
:103D10000401002080B483B000AF0346FB802B4B2E
:103D20001B681A46FB881380294B1B78002B1BD17C
:103D3000284B1B8801339AB2264B1A80254B1B88CF
:103D4000EF2B2CD9234B00221A80234B1B880133E5
:103D50009AB2214B1A80204B1B88B3F5A07F1ED34B
:103D60001D4B00221A801AE01B4B1B8801339AB2AC
:103D7000194B1A80184B1B88B3F5A07F0FD3164B35
:103D800000221A80134B1B8801339AB2114B1A8000
:103D9000104B1B88EF2B02D90E4B00221A800E4BC2
:103DA0001B881A4613461B019B1A1B011A46094B16
:103DB0001B8813445B001A46084B1B681344034AD4
:103DC00013600C37BD465DF8047B7047040100208A
:103DD00040010020000100200201002044000020DA
:103DE00080B582B000AF08200121FFF7ABFA4FF495
:103DF00000533B6002237B7101233B710023BB71A5
:103E00000023FB713B460E48194600F0ABFF04202F
:103E10000121FFF797FA04233B6002237B71012302
:103E20003B710023BB710023FB713B4605481946DB
:103E300000F098FF012000F053F80837BD4680BD20
:103E4000000C02400008024080B590B000AF4FF077
:103E500080600121FFF7D0FA4FF400000121FFF745
:103E600071FA00F0E3F900237B600023BB600023BC
:103E7000FB6000233B6100237B630023BB630023C3
:103E8000FB63C02007210422FFF76CF94FF40030D8
:103E9000FFF73AFA0120FFF77DF900BF3D20FFF759
:103EA00023FB0346002BF9D009237B610123BB616F
:103EB0001D23FB6103233B6240F20D137B6240F242
:103EC0004313BB6240F21713FB6240F247133B639C
:103ED0003B1D1846FEF7FCFD4037BD4680BD00BFC8
:103EE00080B483B000AF0346FB71FB79002B03D194
:103EF000054B04225A8302E0034B04221A830C3739
:103F0000BD465DF8047B70470008024080B483B072
:103F100000AF0346FB71FB79002B04D1064B4FF435
:103F200000525A8303E0044B4FF400521A830C37BB
:103F3000BD465DF8047B7047000C024080B500AFC1
:103F4000CA2000F043F9C32000F058F9082000F01F
:103F500055F9502000F052F9CF2000F037F9002039
:103F600000F04CF9C12000F049F9302000F046F98A
:103F7000ED2000F02BF9642000F040F9032000F060
:103F80003DF9122000F03AF9812000F037F9E820DD
:103F900000F01CF9852000F031F9002000F02EF926
:103FA000782000F02BF9CB2000F010F9392000F038
:103FB00025F92C2000F022F9002000F01FF9342010
:103FC00000F01CF9022000F019F9F72000F0FEF8CB
:103FD000202000F013F9EA2000F0F8F8002000F0AB
:103FE0000DF9002000F00AF9B12000F0EFF80020F0
:103FF00000F004F91B2000F001F9B62000F0E6F80B
:104000000A2000F0FBF8A22000F0F8F8C02000F031
:10401000DDF8102000F0F2F8C12000F0D7F81020F1
:1040200000F0ECF8C52000F0D1F8452000F0E6F8EB
:10403000152000F0E3F8C72000F0C8F8902000F049
:10404000DDF8362000F0C2F8C82000F0D7F8F220E2
:1040500000F0BCF8002000F0D1F8B02000F0B6F875
:10406000C22000F0CBF8B62000F0B0F80A2000F033
:10407000C5F8A72000F0C2F8272000F0BFF8042000
:1040800000F0BCF82A2000F0A1F8002000F0B6F8FB
:10409000002000F0B3F8002000F0B0F8EF2000F0AE
:1040A000ADF82B2000F092F8002000F0A7F80020D7
:1040B00000F0A4F8012000F0A1F83F2000F09EF8E5
:1040C000F62000F083F8012000F098F8002000F0BE
:1040D00095F8062000F092F82C2000F077F8C82020
:1040E00000F060F9262000F071F8012000F086F859
:1040F000E02000F06BF80F2000F080F8292000F09D
:104100007DF8242000F07AF80C2000F077F80E20DB
:1041100000F074F8092000F071F84E2000F06EF8FD
:10412000782000F06BF83C2000F068F8092000F0DF
:1041300065F8132000F062F8052000F05FF8172002
:1041400000F05CF8112000F059F8002000F056F85B
:10415000E12000F03BF8002000F050F8162000F0BD
:104160004DF81B2000F04AF8042000F047F8112019
:1041700000F044F8072000F041F8312000F03EF84C
:10418000332000F03BF8422000F038F8052000F022
:1041900035F80C2000F032F80A2000F02FF8282023
:1041A00000F02CF82F2000F029F80F2000F026F85E
:1041B000112000F00BF8C82000F0F4F8292000F0DE
:1041C00005F82C2000F002F880BD00BF80B582B059
:1041D00000AF0346FB710020FFF798FE0020FFF7B9
:1041E0007FFEFB79184601F045FA0A2000F0DAF864
:1041F0000120FFF775FE0837BD4680BD80B582B04F
:1042000000AF0346FB710120FFF780FE0020FFF79F
:1042100067FEFB79184601F02DFA0A2000F0C2F87B
:104220000120FFF75DFE0837BD4680BD80B582B036
:1042300000AF6F200121FFF785F8544803210E22BB
:1042400000F03AFE514804210E2200F035FE4F489E
:1042500006210E2200F030FE4C480B210E2200F009
:104260002BFE4A480C210E2200F026FE41F6580390
:104270003B6002237B7102233B710023BB7100234F
:10428000FB713B464148194600F06CFD4048002157
:10429000092200F011FE3E480121092200F00CFE27
:1042A0003B4808210E2200F007FE394809210E2262
:1042B00000F002FE36480A210E2200F0FDFD3448CF
:1042C0000B210E2200F0F8FD40F603733B603B46E5
:1042D0002F48194600F046FD2E4806210E2200F018
:1042E000EBFD2C4807210E2200F0E6FD29480A21AB
:1042F0000E2200F0E1FD4FF498633B603B462548F9
:10430000194600F02FFD244803210E2200F0D4FDB1
:10431000214806210E2200F0CFFD48233B603B469A
:104320001D48194600F01EFD1C480A210E2200F00F
:10433000C3FD4FF480633B603B461848194600F0CC
:1043400011FD174806210E2200F0B6FD1448072182
:104350000E2200F0B1FD12480A21092200F0ACFD46
:104360000F480B210E2200F0A7FD0D480C21092259
:1043700000F0A2FD4FF4E6533B603B460848194667
:1043800000F0F0FC0837BD4680BD00BF00000240D1
:104390000004024000080240000C024000140240E9
:1043A0000018024080B485B000AF78600023FB6045
:1043B0007B68FB6002E0FB68013BFB60FB68002B55
:1043C000F9D11437BD465DF8047B704780B483B0E3
:1043D00000AF78607B680122C3F8102300231846E1
:1043E0000C37BD465DF8047B704700BF80B483B0D6
:1043F00000AF78607B680022C3F8102300231846C2
:104400000C37BD465DF8047B704700BF80B483B0B5
:1044100000AF7860002318460C37BD465DF8047B7A
:10442000704700BF80B584B000AFF8607A603B6031
:104430000B46FB72F86801F0D9FA002001F03CFB52
:10444000F868796800F018F87B683A68DA677B6882
:10445000BA69C3F88020FB7AF868194601F0AAFC13
:104460007B68D3F880301B689847F86801F0F8FA49
:104470001037BD4680BD00BF80B582B000AF786008
:1044800039603B6800221A703B6800225A703B6812
:1044900000229A703B680122DA703B6801221A7789
:1044A0003B6840229A713B68002283F820203B68D9
:1044B000012283F821203B681B7978681946FDF7B3
:1044C0005DFF3B685B7978681946FDF757FF00236D
:1044D00018460837BD4680BDB0B586B002AF7860DB
:1044E00039600223FB73786801F0CAFC0346002B95
:1044F0000AD13B681B78002B06D03B681B78022B47
:1045000002D03B6802221A703B681B780A2B00F22B
:10451000048101A252F823F04545000861450008D6
:10452000E14600081B4700081946000867460008D6
:1045300095460008B34600083B4600081B470008A4
:10454000BD460008786801F09BFC0346002B06D0AE
:104550003B6801221A70642001F0F6FADEE0DDE02B
:104560003B68D3F880309B68984778680021FDF756
:10457000DFFE03461A463B685A7178688021FDF7D2
:10458000D7FE03461A463B681A71786801F06CFC46
:104590000346002B3FD13B68D3F88030DB68984757
:1045A000786801F04DFC0346DAB23B6883F82120BD
:1045B0003B6804221A703B68D3F880309B693A68E4
:1045C00092F82120104698473B6819793B6893F888
:1045D00020503B6893F821403B689B799BB20022B6
:1045E0000092019378682A462346FDF7DBFD3B687D
:1045F00059793B6893F820503B6893F821403B6819
:104600009B799BB200220092019378682A46234648
:10461000FDF7C8FD82E081E07868396800F0A6F80F
:104620000346002B08D13B68D3F880305B6B98477A
:104630003B6808221A7071E070E03B68D3F8803064
:104640009B6B98470346012B0CD13B68DB6F1B68C3
:104650007868396898470346002B03D13B680522E8
:104660001A705BE05AE03B68DB6F9B6878683968DA
:1046700098470346FB73FB7BDBB2002B03D13B68FF
:1046800006221A704AE0FB7BDBB23868194600F05C
:1046900049F843E03B68DB6FDB6878683968984726
:1046A0000346FB73FB7BDBB23868194600F03AF82F
:1046B00034E07868396800F0BDF92FE0786839682F
:1046C000FFF7DAFE3B68D3F880305B6898473B68B9
:1046D000DB6F5B683A6820327868114698471DE0C6
:1046E0003B68D3F880301B69984778683968FFF7D2
:1046F000C3FE3B68D3F880305B6898473B68DB6F4C
:104700005B683A6820327868114698477868FDF708
:1047100057FE3B6800221A7000E000BF1037BD460C
:10472000B0BD00BF80B582B000AF78600B46FB70B3
:10473000FB78052B02D0FB78042B08D17B68D3F8DB
:1047400080305B6C98477B680A221A700AE0FB781D
:10475000062B07D17B680A221A707B68D3F8803059
:104760001B6898470837BD4680BD00BF90B597B01D
:1047700002AF78603960012387F84F303B689B783F
:10478000092B00F24D8101A252F823F0B547000831
:10479000134800083D480008A3480008BD48000829
:1047A000F54800084B490008A1490008F7490008EE
:1047B000194A0008786839680822FDF743FE034665
:1047C000002B25D13B6893F829203B689A717868C3
:1047D00001F04AFB3B6801229A703B6859793B68BB
:1047E0009B799BB2002200920193786800220023FB
:1047F000FDF752FD3B6819793B689B799BB200221B
:1048000000920193786800220023FDF745FD08E13E
:1048100007E1786839681222FDF714FE0346002B81
:104820000BD13B68D3F88030DB693A6822321046FE
:1048300098473B6802229A70F3E0F2E078683968A2
:104840000122FDF7CFFE0346002B29D1022001F003
:104850007BF93B68012283F820203B68D3F8803045
:104860001B6A98473B6803229A703B6819793B683A
:1048700093F82020002300930023019378680023FD
:10488000FDF70AFD3B6859793B6893F82020002327
:1048900000930023019378680023FDF7FDFCC0E03E
:1048A000BFE0786839680922FDF7F8FD0346002B60
:1048B00003D13B6804229A70B3E0B2E03B68DB8E20
:1048C000786839681A46FDF7E9FD0346002B10D1D8
:1048D0003B68D3F880305B6A3A6802F134003A688A
:1048E00002F13E013A68503298473B6805229A70BF
:1048F00097E096E03B6893F83030002B1AD03B6885
:1049000093F8302007F10C04FF230093786839688E
:104910002346FDF707FE0346002B15D13B68D3F86D
:1049200080309B6A07F10C02104698473B680622CC
:104930009A7076E03B68D3F880309B6A3C48984791
:104940003B6806229A706CE06BE03B6893F831306C
:10495000002B1AD03B6893F8312007F10C04FF2399
:104960000093786839682346FDF7DCFD0346002B89
:1049700015D13B68D3F88030DB6A07F10C02104692
:1049800098473B6807229A704BE03B68D3F8803029
:10499000DB6A274898473B6807229A7041E040E06D
:1049A0003B6893F83230002B1AD03B6893F83220E2
:1049B00007F10C04FF230093786839682346FDF75C
:1049C000B1FD0346002B15D13B68D3F880301B6B3B
:1049D00007F10C02104698473B6808229A7020E0C5
:1049E0003B68D3F880301B6B114898473B6808221E
:1049F0009A7016E015E03B6893F839309BB27868FE
:104A000039681A46FDF710FE0346002B03D13B68B8
:104A100009229A7005E004E0002387F84F3000E097
:104A200000BF97F84F3018465437BD4690BD00BFC1
:104A3000F482000880B584B000AF7860396000234C
:104A4000FB730023BB733B6800229A743B681B7F97
:104A5000013B0A2B00F27E8101A252F823F000BF35
:104A60008D4A0008A94A00082F4B0008494B00084E
:104A7000A34B0008CD4B00081F4C0008354C000824
:104A8000A34C0008E14C0008254D00083B6803F1E9
:104A900014023B685B79786811461A4601F096FD6E
:104AA0003B6802221A7756E13B685B7978681946C1
:104AB00001F002FA0346BB73BB7B012B2CD13B6890
:104AC0001B7D23F07F037B733B685B8B002B0ED039
:104AD000A34B41F288321A807B7B802B03D13B6849
:104AE00003221A7710E03B6805221A770CE09C4BF2
:104AF00032221A807B7B802B03D13B6809221A77F4
:104B000002E03B6807221A77786801F0C7F903468C
:104B10009AB23B681A8209E0BB7B032B06D13B6843
:104B20000B221A773B6805229A7414E113E13B6863
:104B300099683B689A893B681B79786801F0CEFDDB
:104B40003B6804221A7706E13B681B7978681946AE
:104B500001F0B2F90346BB73BB7B012B02D13B686A
:104B600009221A77BB7B042B04D13B685A783B6837
:104B70001A7015E0BB7B032B03D13B680B221A771D
:104B80000EE0786801F08AF902463B681B8AD31A66
:104B9000734A1288934203D93B680B221A77DAE0F2
:104BA000D9E03B685B797A681E335B0113440122CC
:104BB0005A713B6899683B689A893B685B79786869
:104BC00001F038FD3B6806221A77C4E03B685B7948
:104BD0007868194601F070F90346BB73BB7B012B63
:104BE00003D13B6807221A7718E0BB7B042B07D15F
:104BF0003B685A783B681A703B680C221A770DE0C4
:104C0000BB7B022B03D13B6805221A7706E0BB7BF6
:104C1000032B03D13B680B221A779CE09BE03B6897
:104C20001B7978680021002201F058FD3B680822BA
:104C30001A7790E03B681B797868194601F03CF9D7
:104C40000346BB73BB7B012B07D13B685A783B689B
:104C50001A703B680D221A7722E0BB7B032B03D12D
:104C60003B680B221A771BE0786801F017F90246BF
:104C70003B681B8AD31A3A4A1288934203D93B688D
:104C80000B221A770CE0BB7B042B09D13B685A78C6
:104C90003B681A703B6804229A740323FB735AE042
:104CA00059E03B685B7918463B685B797A681E334C
:104CB0005B0113445B7983F00103D9B27A6800F198
:104CC0001E035B0113440A465A713B685B7978689E
:104CD0000021002201F0AEFC3B680A221A773AE07C
:104CE0003B685B797868194601F0E6F80346BB73C8
:104CF000BB7B012B07D13B685A783B681A703B6835
:104D00000D221A770DE0BB7B022B03D13B680922F1
:104D10001A7706E0BB7B032B03D13B680B221A7783
:104D200019E018E03B689B7B0133DAB23B689A7369
:104D30003B689B7B022B03D83B6801221A770AE071
:104D40003B6808229A743B685A783B681A700223C1
:104D5000FB7300E000BFFB7B18461037BD4680BDEB
:104D60000801002080B487B000AF7860396000236C
:104D70007B6100233B610023FB6000237B6176E0C5
:104D80007B69012202FA03F33B613B681A683B69C5
:104D90001340FB60FA683B699A4265D17B681A68E8
:104DA0007B695B00194603238B40DB431A407B6819
:104DB0001A607B681A683B681B7919467B695B003F
:104DC00001FA03F31A437B681A603B681B79012BD5
:104DD00003D03B681B79022B2ED17B689A687B69D4
:104DE0005B00194603238B40DB431A407B689A60C3
:104DF0007B689A683B685B7919467B695B0001FABE
:104E000003F31A437B689A607B685A687B699BB29C
:104E1000194601238B40DB431A407B685A607B684C
:104E20005B683A68927911467A6992B201FA02F2A5
:104E300092B21A437B685A607B68DA687B699BB2DE
:104E40005B00032101FA03F3DB431A407B68DA605D
:104E50007B68DA683B68DB7919467B695B0001FA9D
:104E600003F31A437B68DA607B6901337B617B69FA
:104E70000F2B85D91C37BD465DF8047B704700BFFA
:104E800080B483B000AF78600B467B807B687A8803
:104E90001A830C37BD465DF8047B704780B483B03D
:104EA00000AF78600B467B807B687A885A830C372A
:104EB000BD465DF8047B704780B485B000AF786074
:104EC0000B467B8013467B700023FB600023BB6096
:104ED0007B787A8802F0070292009340FB607B881F
:104EE000DB089BB218467B88DB089BB21A467B68BE
:104EF000083253F822207B8803F007039B001946F1
:104F00000F238B40DB4302EA03017B6800F10802B8
:104F100043F822107B88DB089BB21A467B68083274
:104F200053F82220FB681343BB607B88DB089BB2ED
:104F30001A467B680832B96843F822101437BD4618
:104F40005DF8047B704700BF80B483B000AF0346B8
:104F5000FB71FB79B42B0DD0FB795E2B0AD0FB796A
:104F6000602B07D0FB797E2B04D0794B1B78002B6C
:104F700000F0E780FB79002B00F0E380FB790A2B3F
:104F800000F0DF80724B1B78002B1FD1FB79602B68
:104F900009D0602B02DC5E2B0DD014E07E2B0ED0EE
:104FA000B42B04D00FE06A4B01221A700BE0684B5F
:104FB00002221A7007E0664B03221A7003E0644B6A
:104FC00004221A7000BF0023FB71BAE0FB79413B59
:104FD000342B00F29F8001A252F823F0E350000826
:104FE000155100081551000815510008ED50000832
:104FF000155100081551000815510008F750000818
:1050000015510008155100081551000815510008E8
:1050100015510008015100081551000815510008EC
:105020001551000815510008155100080B510008D2
:1050300015510008155100081551000815510008B8
:1050400015510008155100081551000815510008A8
:10505000155100081551000815510008B1500008FD
:10506000155100081551000815510008BB500008E3
:10507000155100081551000815510008C5500008C9
:105080001551000815510008155100081551000868
:1050900015510008CF50000815510008155100089F
:1050A000155100081551000815510008D950000885
:1050B000274B1B78213BFB712CE0254B1B78193BC0
:1050C000FB7127E0224B1B78153BFB7122E0204B44
:1050D0001B780F3BFB711DE01D4B1B78083BFB71E0
:1050E00018E01B4B1B78413BFB7113E0184B1B78FE
:1050F000393BFB710EE0164B1B78353BFB7109E029
:10510000134B1B782F3BFB7104E0114B1B78283BA2
:10511000FB7100BFFB79EB2B0ED0FB79EF2B0BD093
:10512000FB79FC2B08D0FB79CB2B05D0FB79CF2B5F
:1051300002D0FB79DC2B01D10023FB71044B002250
:105140001A70FB7918460C37BD465DF8047B704732
:105150000A01002080B588B000AF7B600346FB8168
:105160000B46BB811346FB72FB7A203BFB727B68CC
:105170001A68FB7A7968C98801FB03F35B00134462
:105180007B61464B1B78002B40D180237B837B685F
:105190009B88082B02D94FF400437B830023BB83F9
:1051A0002EE07B8B3B83BA8BBB8913449BB2FA897D
:1051B00010461946FEF780FD0023FB8318E0BB8BE9
:1051C0005B007A6913441A883B8B13409BB2002B17
:1051D00004D1BB8D1846FEF79DFD03E03B8D1846BC
:1051E000FEF798FD3B8B5B083B83FB8B0133FB8316
:1051F0007B689B88FA8B9A42E1D3BB8B0133BB83DC
:105200007B68DB88BA8B9A42CBD343E080237B83D5
:105210007B689B88082B02D94FF400437B830023D3
:10522000BB8332E07B8B3B837B68DA88FB8913444A
:105230009AB2BB8BD31A9AB2BB8910461946FEF7B5
:105240003BFD0023FB8318E0BB8B5B007A691344B2
:105250001A883B8B13409BB2002B04D1BB8D1846A0
:10526000FEF758FD03E03B8D1846FEF753FD3B8BE0
:105270005B083B83FB8B0133FB837B689B88FA8B4A
:105280009A42E1D3BB8B0133BB837B68DB88BA8B4B
:105290009A42C7D32037BD4680BD00BF40010020E1
:1052A00080B588B002AFBA607B600346FB810B46D5
:1052B000BB811E4B1B78002B1AD1FB89FB8212E0AD
:1052C000BB681A78F88AB9893B8C0093BB8C019330
:1052D0007B68FFF73FFF7B689A88FB8A1344FB8259
:1052E000BB680133BB60BB681B78002BE8D119E0B9
:1052F000BB89FB8212E0BB681A78F889F98A3B8C7B
:105300000093BB8C01937B68FFF724FF7B689A882E
:10531000FB8A1344FB82BB680133BB60BB681B780C
:10532000002BE8D11837BD4680BD00BF40010020EA
:1053300080B500AF114A114B1B6843F001031360A5
:105340000E4B00229A600D4A0C4B1B6823F08473AD
:1053500023F480331360094B094A5A60074A074B0C
:105360001B6823F480231360044B0022DA6000F0F2
:105370000BF8044B4FF000629A6080BD0038024089
:105380001030002400ED00E080B483B000AF0023B3
:105390007B6000233B60424A414B1B6843F48033EF
:1053A00013603F4B1B6803F400333B607B680133A1
:1053B0007B603B68002B03D17B68B3F5A04FF0D135
:1053C000374B1B6803F40033002B02D001233B60F2
:1053D00001E000233B603B68012B5CD1304A304B3D
:1053E0001B6C43F0805313642E4A2E4B1B6843F40E
:1053F000404313602A4A2A4B9B689360284A284BF3
:105400009B6843F400439360254A254B9B6843F413
:10541000A0539360224B244A5A60214A204B1B68B8
:1054200043F08073136000BF1D4B1B6803F00073D3
:10543000002BF9D01B4A1B4B1B6843F480331360CD
:1054400000BF184B5B6803F48033002BF9D0154A7A
:10545000144B1B6843F40033136000BF114B5B68AF
:1054600003F40033002BF9D0104B40F205721A60A0
:105470000B4A0B4B9B6823F003039360084A084BCD
:105480009B6843F00203936000BF054B9B6803F0E9
:105490000C03082BF9D10C37BD465DF8047B70472F
:1054A000003802400070004008544007003C0240B1
:1054B00080B58AB000AF0346FB71002387F8273020
:1054C000684B1B78002B0AD0674B1B78FA799A42FD
:1054D00002D1012387F8273097F82730BEE04FF438
:1054E00080100121FDF788FF604B9B681846012161
:1054F000FDF728FF5D4B9B6918460121FDF722FF50
:105500005A4B9B6A18460121FDF71CFF574B1A683E
:10551000564B1B7B9BB2104619460522FFF7CCFC6D
:10552000524B1A69514B1B7F9BB2104619460522FC
:10553000FFF7C2FC4D4B1A6A4C4B93F82C309BB2D0
:10554000104619460522FFF7B7FC022387F82030E2
:10555000022387F82130002387F82230002387F8C0
:105560002330424B9B88FB61404B1A6807F11C03B8
:1055700010461946FFF7F6FB3C4B9B8AFB613B4B01
:105580001A6907F11C0310461946FFF7EBFB374B6E
:105590009B8CFB61354B1A6A07F11C0310461946B8
:1055A000FFF7E0FB324800F0B7FC00233B814FF4EB
:1055B00082737B810023BB81FB79002B02D0FB79B6
:1055C000042B04D10023FB8100233B8219E0FB79EB
:1055D000012B02D0FB79052B04D10023FB81012391
:1055E0003B820EE0FB79022B02D0FB79062B04D123
:1055F0000223FB8100233B8203E00223FB81012382
:105600003B824FF400737B821823BB82FB79002B13
:1056100008D0FB79012B05D0FB79022B02D0FB7956
:10562000032B02D10023FB8201E08023FB820723AE
:105630003B8307F108030E48194600F0D9FC0C48DB
:10564000012100F019FD074B01221A70064AFB796F
:105650001370012387F8273097F82730184628372A
:10566000BD4680BD0B0100200C0100206000002021
:105670000050014080B584B000AF0346FB710023A9
:10568000FB7300BF0F48022100F032FD0346002BE0
:10569000F8D0FB799BB20B48194600F01BFD00BF08
:1056A0000848012100F024FD0346002BF8D00548EE
:1056B00000F002FD0346FB73FB7B18461037BD4626
:1056C00080BD00BF0050014080B400AFBD465DF812
:1056D000047B704780B400AF034B01221A70BD46B3
:1056E0005DF8047B704700BF4801002080B400AF24
:1056F000034B01221A70BD465DF8047B704700BF62
:105700004801002080B400AF034B01221A70BD464F
:105710005DF8047B704700BF4801002080B400AFF3
:10572000BD465DF8047B704780B483B000AF03468C
:10573000FB71FB79012B06D0FB79022B03D0064BC2
:1057400003221A7002E0044B02221A700C37BD4685
:105750005DF8047B704700BF4801002080B483B02F
:1057600000AF78600C37BD465DF8047B704700BF22
:1057700080B400AFBD465DF8047B704780B485B04F
:1057800000AFF860B9607A601437BD465DF8047BFD
:10579000704700BF80B483B000AF78600C37BD465F
:1057A0005DF8047B704700BF80B483B000AF7860C1
:1057B0000C37BD465DF8047B704700BF80B483B0F2
:1057C00000AF78600C37BD465DF8047B704700BFC2
:1057D00080B400AF034B06221A70BD465DF8047B0F
:1057E000704700BF4801002080B400AF034B042283
:1057F0001A70BD465DF8047B704700BF4801002069
:1058000080B483B000AF0023FB71084B1B68002BF2
:1058100004D00123FB71054B00221A60FB79184666
:105820000C37BD465DF8047B704700BF4C0100207B
:1058300080B400AF034B05221A70BD465DF8047BAF
:10584000704700BF4801002080B400AF034B012225
:105850001A70BD465DF8047B704700BF4801002008
:1058600080B400AF064B07221A70064B00221A7054
:10587000044B00225A70BD465DF8047B704700BFA0
:10588000480100205001002080B483B000AF0346DF
:10589000FB71044AFB7913700C37BD465DF8047B3D
:1058A000704700BF5001002080B483B000AF0346B2
:1058B000FB71044AFB7953700C37BD465DF8047BDD
:1058C000704700BF5001002080B582B002AF0B4B83
:1058D00001221A700A4B00221A600A4B00221A7029
:1058E000084B00225A70084B009308480021084AD0
:1058F000084BFEF797FDBD4680BD00BF4801002064
:105900004C01002050010020900000200C040020D9
:10591000B80900203400002080B500AF164B1B787A
:10592000042B03D015481649FEF7D6FD124B1B7801
:10593000022B03D0104B1B78032B0ED1114B1B688D
:105940000133104A13600F4B1B680F4A934203D96F
:10595000094B04221A7003E002E00A4B00221A608D
:10596000054B1B78062B02D1084B01221A60024B13
:105970001B78184680BD00BF480100200C040020A1
:10598000B80900201001002020A107004C010020D0
:1059900080B483B000AF0023FB71084B1B78002B51
:1059A00005D0064B1B78FB71044B00221A70FB7963
:1059B00018460C37BD465DF8047B70475001002047
:1059C00080B483B000AF084B5B78002B05D0064B4A
:1059D0005B78FB71044B00225A70FB7918460C3738
:1059E000BD465DF8047B70475001002080B584B04F
:1059F00000AF786002200121FDF7A4FC4FF4504372
:105A0000BB6003237B7302233B730123BB7301231E
:105A1000FB7307F1080311481946FFF7A3F90F4874
:105A20000E210C22FFF748FA0C480F210C22FFF739
:105A300043FA4FF40053BB6003237B7300233B7393
:105A400007F1080305481946FFF78CF94FF000509D
:105A50000121FDF777FC1037BD4680BD00040240F0
:105A600080B584B000AF78604D233B7300237B7317
:105A70000223BB730123FB7307F10C03184600F0EC
:105A8000DDFE1037BD4680BD80B582B000AF7860C6
:105A90000B46FB70FB78002B04D106481021FFF762
:105AA000EFF903E003481021FFF7F8F90837BD4686
:105AB00080BD00BF0008024080B584B000AF7860B0
:105AC00004200121FDF73EFC1023BB6003237B7300
:105AD00001233B730023BB730023FB7307F108030F
